:100000000C9462000C948A000C948A000C948A0070
:100010000C948A000C948A000C948A000C948A0038
:100020000C948A000C948A000C948A000C948A0028
:100030000C948A000C948A000C948A000C948A0018
:100040000C949B050C948A000C948A000C948A00F2
:100050000C948A000C948A000C948A000C948A00F8
:100060000C948A000C948A000000000024002700F1
:100070002A0000000000250028002B0000000000DE
:1000800023002600290004040404040404040202DA
:100090000202020203030303030301020408102007
:1000A0004080010204081020010204081020000012
:1000B0000008000201000003040700000000000027
:1000C0000000170711241FBECFEFD8E0DEBFCDBF61
:1000D00011E0A0E0B1E0E0E3FFE002C005900D9286
:1000E000A63FB107D9F722E0A6EFB1E001C01D920B
:1000F000A638B207E1F710E0C2E6D0E004C02197CD
:10010000FE010E949007C136D107C9F70E94E5059C
:100110000C9496070C94000096E0899FD00111245E
:10012000A150BE4F90967C936E935F9791E091960D
:100130009C939197E0916C02F0916D0290916B020B
:10014000992339F0309751F0811108C080911B023A
:100150000994309719F05C968C91FACF0895CF925C
:10016000DF92EF92FF920F931F9396E0899FF00129
:100170001124E150FE4F11A2278D30A1213031050D
:1001800051F178F02230310509F451C023303105A6
:1001900009F452C01F910F91FF90EF90DF90CF9024
:1001A00008956623B9F361E070E00E948C002FB7D8
:1001B000F8948091FB019091FC01A091FD01B09118
:1001C000FE012FBF8093570290935802A0935902CB
:1001D000B0935A02DFCF9FB7F894C090FB01D09044
:1001E000FC01E090FD01F090FE019FBF00915702DD
:1001F000109158022091590230915A02C01AD10A26
:10020000E20AF30A0091690210916A0230E020E0EC
:100210000C151D052E053F0550F462E070E01F919E
:100220000F91FF90EF90DF90CF900C948C006111B4
:10023000B1CF63E070E0F3CF70E060E0F0CFAF9259
:10024000BF92CF92DF92EF92FF920F931F93CF93C3
:10025000DF936C017B018B01040F151FEB015E0125
:10026000AE18BF08C017D10759F06991D601ED91BA
:10027000FC910190F081E02DC6010995892B79F759
:10028000C501DF91CF911F910F91FF90EF90DF900B
:10029000CF90BF90AF900895833081F028F48130E3
:1002A00099F08230A9F008958730A9F08830C9F01C
:1002B0008430B1F4809180008F7D03C080918000F4
:1002C0008F7780938000089584B58F7784BD0895DB
:1002D00084B58F7DFBCF8091B0008F778093B00085
:1002E00008958091B0008F7DF9CFCF93DF93282FB1
:1002F00030E0F901E255FF4F8491F901E656FF4FD6
:10030000D491F901EA57FF4FC491CC23A1F0811198
:100310000E944C01EC2FF0E0EE0FFF1FE458FF4F5E
:10032000A591B491EC91ED2381E090E009F480E097
:10033000DF91CF91089580E090E0FACF862F0C9462
:1003400075011F93CF93DF93282F30E0F901E25519
:10035000FF4F8491F901E656FF4FD491F901EA5716
:10036000FF4FC491CC23A9F0162F81110E944C019C
:10037000EC2FF0E0EE0FFF1FEE58FF4FA591B49168
:100380008FB7F894EC91111108C0D095DE23DC935F
:100390008FBFDF91CF911F910895DE2BF8CF862F6D
:1003A000642F0C94A101CF93DF9390E0FC01E656FB
:1003B000FF4F24918A579F4FFC0184918823C9F0F5
:1003C00090E0880F991FFC01E859FF4FA591B49167
:1003D000FC01EE58FF4FC591D49161110DC09FB73C
:1003E000F8948C91209582238C93888128232883EC
:1003F0009FBFDF91CF910895623051F49FB7F89479
:100400003C91822F809583238C93E8812E2BEFCF14
:100410008FB7F894EC912E2B2C938FBFEACF862FB9
:10042000642F0C94D3016F927F928F929F92AF9220
:10043000BF92CF92DF92EF92FF920F931F93CF93D1
:10044000DF9381E080936B028FB7F8944091FB01BA
:100450005091FC016091FD017091FE018FBF809170
:100460005B0290915C02A0915D02B0915E02481B1C
:10047000590B6A0B7B0B8091670290916802B0E088
:10048000A0E084179507A607B70708F01DC1C0E0D4
:1004900080916502C81760F4E0916102F0916202F8
:1004A000EC0FF11D62E080810E94D301CF5FF0CF9D
:1004B000712C812C912C54018394809166027816C2
:1004C00008F05FC0072D10E0E0916302F091640234
:1004D000E00FF11F61E080810E94D301E09163028F
:1004E000F0916402E00FF11F60E080810E94A101A1
:1004F000D501C401072C04C0880F991FAA1FBB1F78
:100500000A94D2F76C017C01E094F094612C809104
:1005100065026816F8F4C62DD0E0E0916102F09112
:100520006202EC0FFD1F80810E9475012496CC0FA2
:10053000DD1FC150DE4F892B41F4888199818C29C0
:100540009D29998388836394E2CF888199818E2144
:100550009F21F7CFE0916302F0916402E00FF11F59
:1005600061E080810E94A101809163029091640208
:10057000080F191F60E0F80180810E94D301739475
:100580009CCFCFEFD1E0FE018FEF9FEF278D30A101
:10059000232B21F4148E968F858F11A2369622E09C
:1005A000EB33F20799F7F12C96E0D92E8091650292
:1005B000F81608F050C0E12C0F2D10E0000F111FAD
:1005C000095F1D4F20916602E21608F042C0F80153
:1005D000608171810E2C02C0769567950A94E2F7CE
:1005E000F29E900111242E0D311DEFEFF1E080E01D
:1005F000458D568D2417350709F46AC08F5F3696EE
:100600008A30B1F760FF23C0EFEFF1E090E080E0C7
:10061000448D411117C0E0915F02F0916002E20F3A
:10062000F31F4081D89EF001D99EF00D1124E150B6
:10063000FE4F448F368F258F10A2178E61E00E94E7
:10064000AF0005C0019636968A30910509F7E3940C
:10065000B9CFF394ABCF80E099A19111892F269661
:10066000F2E0CB33DF07C1F79FB7F8944091FB016D
:100670005091FC016091FD017091FE019FBF40937C
:100680005B0250935C0260935D0270935E0288236C
:10069000D9F0809120028823B9F080911E029091B8
:1006A0001F02019789F480911B02DF91CF911F9166
:1006B0000F91FF90EF90DF90CF90BF90AF909F9001
:1006C0008F907F906F90089510926B0280E0EDCF35
:1006D0006170B5CF3FB7F8948091F7019091F80120
:1006E000A091F901B091FA0126B5A89B05C02F3F52
:1006F00019F00196A11DB11D3FBFBA2FA92F982F48
:100700008827BC01CD01620F711D811D911D42E042
:10071000660F771F881F991F4A95D1F708958F920A
:100720009F92AF92BF92CF92DF92EF92FF926B01B6
:100730007C010E946A034B015C01C114D104E104F5
:10074000F104B9F00E946A03681979098A099B09C2
:10075000683E73408105910580F321E0C21AD108FB
:10076000E108F10888EE880E83E0981EA11CB11CF8
:10077000E4CFFF90EF90DF90CF90BF90AF909F902D
:100780008F900895089590E080E00895FC01019015
:100790000020E9F73197AF01481B590BBC018EE6E9
:1007A00092E00C941F01CF93DF93EC0160E08E8107
:1007B0000E94A10161E08E810E94A10160E08E8112
:1007C0000E94A1018BE891E00197F1F7DF91CF91B1
:1007D0000895CF92DF92EF92FF920F931F93CF93E2
:1007E000DF936C017C0187E0E80EF11CD0E0C0E0F3
:1007F000062F10E0B8010C2E02C0759567950A947B
:10080000E2F76170F70181917F010E94A1012196B9
:10081000C430D10579F7C601DF91CF911F910F91B7
:10082000FF90EF90DF90CF900C94D303CF92DF92A4
:10083000EF92FF920F931F93CF93DF93EC01F62E6D
:10084000642F8C810E94A1018D818F3F19F060E09F
:100850000E94A1010F2D10E08F8584FF25C06E013D
:1008600087E0C80ED11CF12CE12CB8010E2C02C07F
:10087000759567950A94E2F76170F60181916F01B1
:100880000E94A101FFEFEF1AFF0A88E0E816F104C9
:1008900061F7CE01DF91CF911F910F91FF90EF9003
:1008A000DF90CF900C94D303B80184E075956795E1
:1008B0008A95E1F7CE010E94E9036F2DCE01DF9109
:1008C000CF911F910F91FF90EF90DF90CF900C94FC
:1008D000E90340E0682F8EE692E00C94160481E074
:1008E0000E9469048BE39FE10197F1F70895CF938C
:1008F000DF93613029F090917D02986090937D02A2
:10090000609381021092820290E49093830280931C
:100910008402805C8093850261E0809172020E9473
:10092000D301809173028F3F19F061E00E94D301DF
:1009300061E0809174020E94D301CEE6D2E09E0174
:100940002E56324080917D0284FD0BC084E090E001
:1009500021962817390744F461E08E810E94D30163
:10096000EECF88E090E0F4CF8BE39DE00197F1F7C4
:1009700060E0809172020E94A10160E080917402A7
:100980000E94A101809173028F3F19F060E00E94E4
:10099000A10180917D0284FD34C063E08EE692E087
:1009A0000E94E903CBE4D6E4CE010197F1F763E0BE
:1009B0008EE692E00E94E9032197F1F763E08EE66C
:1009C00092E00E94E90383E592E00197F1F762E08B
:1009D0008EE692E00E94E90380917D0280620E948F
:1009E000690484E080937E028CE00E9469040E9486
:1009F0006F0482E080937F0286E0DF91CF910C94B8
:100A0000690480620E9469048BE496E40197F1F71F
:100A100080917D0280620E94690483E592E00197E3
:100A2000F1F780917D0280620E946904D5CF909198
:100A30008102891710F08FEF890FE82FF0E0E2595B
:100A4000FD4F848980680C9469040E946F0489E2D8
:100A500091E00E94C60381E00E9417058FE391E0B8
:100A60000E94C60382E00E94170585E591E00C9480
:100A7000C603EF92FF920F931F93CF93DF937C01F6
:100A80008B01EA0161E082E00E94A101B701FF0C45
:100A9000880B990B0E948F0360E082E00E94A10105
:100AA00064EF71E080E090E00E948F0361E085E0F8
:100AB0000E94A101B801110F880B990B0E948F03AE
:100AC00060E085E00E94A10164EF71E080E090E0C9
:100AD0000E948F0361E080E00E94A101BE01DD0F52
:100AE000880B990B0E948F0360E080E00E94A101B7
:100AF00064EF71E080E090E00E948F030E946F0439
:100B000081E00E9417058DE591E00E94C60368EE22
:100B100073E080E090E00E948F03DF91CF911F91FE
:100B20000F91FF90EF900C94250541E00E94160470
:100B300081E090E008951F920F920FB60F9211245A
:100B40002F933F938F939F93AF93BF938091FB011C
:100B50009091FC01A091FD01B091FE013091F60150
:100B600023E0230F2D3758F50196A11DB11D2093C9
:100B7000F6018093FB019093FC01A093FD01B093DB
:100B8000FE018091F7019091F801A091F901B091D7
:100B9000FA010196A11DB11D8093F7019093F80110
:100BA000A093F901B093FA01BF91AF919F918F91FA
:100BB0003F912F910F900FBE0F901F90189526E830
:100BC000230F0296A11DB11DD2CF789484B5826007
:100BD00084BD84B5816084BD85B5826085BD85B5E1
:100BE000816085BD80916E00816080936E0010925F
:100BF00081008091810082608093810080918100DA
:100C0000816080938100809180008160809380006A
:100C10008091B10084608093B1008091B0008160C8
:100C20008093B00080917A00846080937A008091F4
:100C30007A00826080937A0080917A00816080934C
:100C40007A0080917A00806880937A001092C100C7
:100C500061E082E00E94D30161E083E00E94D30161
:100C600061E084E00E94D30161E085E00E94D3014D
:100C700061E080E00E94D30161E081E00E94D30145
:100C800060E086E00E94D30160E082E00E94A10162
:100C900060E083E00E94A10160E084E00E94A10185
:100CA00060E085E00E94A10160E080E00E94A10177
:100CB00060E081E00E94A10164E084E10E94770489
:100CC0000E94250500E010E00E941302C82F88232F
:100CD00009F45AC0803309F457C088EC8C0F823075
:100CE00008F452C0CA3209F44FC0C33209F44CC0F0
:100CF0000E946F0480E00E94170581E791E00E9446
:100D0000C60381E00E94170583E891E00E94C603B4
:100D100041E06C2F8EE692E00E94160482E00E9471
:100D200017058AE891E00E94C60383E00E94170538
:100D30008EE991E00E94C6030E941302833209F0FB
:100D400057C086E00E947501019709F057C00E94C4
:100D50006F0481E00E94170583E891E00E94C603BA
:100D600041E06C2F8EE692E00E94160483EB91E046
:100D70000E94C603C13379F450E040E070E060E0C7
:100D800084E89CE10E9439050115110509F49CCF06
:100D90000E94000099CF50E040E064E87CE1C2335B
:100DA000D9F044E85CE170E060E0C333A9F0C433FB
:100DB00039F450E040E062E47EE082E49EE0E2CF7D
:100DC00042E45EE070E060E0C533B9F3C63339F465
:100DD00042E45EE062E47EE090E080E0D3CF4EE764
:100DE00059E06EE779E08EE799E0C73359F2CCCF4E
:100DF0008A3209F0A1CF0E942505C6CF86E00E9465
:100E00007501892B09F098CF0E946F048DEB91E05A
:100E10000E94C60382E00E9417058CEC91E00E94BC
:100E2000C60383E00E9417058EED91E083CF1092F8
:100E300071021092700281E291E090936F028093B0
:100E40006E0283E1809372028FEF8093730282E1DE
:100E50008093740281E18093750280E18093760231
:100E60008FE0809377028EE080937802109279026F
:100E700010927A0210927B0210927C0210927D02F4
:100E800061E080E10E947704109201021092050255
:100E9000109204021092060287E191E09093000202
:100EA0008093FF01EBE1F2E010821482138215823D
:100EB000369682E0E735F807B9F783E091E0909342
:100EC00062028093610280E091E0909364028093DB
:100ED000630284E08093650283E08093660287E08A
:100EE00091E09093600280935F028AE090E090939B
:100EF00068028093670284EF91E090936A02809386
:100F0000690210926D0210926C0210925B021092B4
:100F10005C0210925D0210925E0210926B020895C4
:100F2000EE0FFF1F0590F491E02D0994F894FFCF88
:100F30000B0C0D0A0908073132333435363738398E
:100F40002A3023000000000F02CF019E01000000A4
:100F50000095051F01C303C203312964726B312060
:100F6000322964726B3220332964726B332000346F
:100F70002964726B3420352964726B3520362964FC
:100F8000726B362000372964726B372000596F75F9
:100F900072204F72646572204973205265616479D2
:100FA00000596F7520686176652063686F6F73659F
:100FB0006E20006472696E6B20007072657373201E
:100FC0002A20746F20676F206261636B200070724B
:100FD000657373202320746F20636F6E74696E7560
:100FE000652000696E206D616B696E6700637570C6
:100FF000206E6F7420666F756E642000706C656182
:10100000736520706C616365206375702000616E8C
:1010100064207072657373202320746F20636F6E79
:0610200074696E756500A5
:00000001FF
